{
  "contractName": "IRS",
  "abi": [
    {
      "inputs": [],
      "payable": false,
      "stateMutability": "nonpayable",
      "type": "constructor"
    },
    {
      "anonymous": false,
      "inputs": [
        {
          "indexed": false,
          "internalType": "uint256",
          "name": "newRate",
          "type": "uint256"
        }
      ],
      "name": "TaxRateChanged",
      "type": "event"
    },
    {
      "constant": true,
      "inputs": [
        {
          "internalType": "address",
          "name": "_address",
          "type": "address"
        }
      ],
      "name": "isAddressFromIrs",
      "outputs": [
        {
          "internalType": "bool",
          "name": "",
          "type": "bool"
        }
      ],
      "payable": false,
      "stateMutability": "view",
      "type": "function"
    }
  ],
  "bytecode": "0x6080604052600a60025534801561001557600080fd5b5061003973a3dcb6c670a83eb68c65ecb8d6dd6dfadbf429be61003e60201b60201c565b6101c4565b60001515600160008373ffffffffffffffffffffffffffffffffffffffff1673ffffffffffffffffffffffffffffffffffffffff16815260200190815260200160002060009054906101000a900460ff16151514610104576040517f08c379a00000000000000000000000000000000000000000000000000000000081526004018080602001828103825260158152602001807f49525320696420616c726561647920657869737473000000000000000000000081525060200191505060405180910390fd5b60008190806001815401808255809150509060018203906000526020600020016000909192909190916101000a81548173ffffffffffffffffffffffffffffffffffffffff021916908373ffffffffffffffffffffffffffffffffffffffff1602179055505060018060008373ffffffffffffffffffffffffffffffffffffffff1673ffffffffffffffffffffffffffffffffffffffff16815260200190815260200160002060006101000a81548160ff02191690831515021790555050565b610118806101d36000396000f3fe6080604052348015600f57600080fd5b506004361060285760003560e01c8063f0f26c4814602d575b600080fd5b606c60048036036020811015604157600080fd5b81019080803573ffffffffffffffffffffffffffffffffffffffff1690602001909291905050506086565b604051808215151515815260200191505060405180910390f35b600060011515600160008473ffffffffffffffffffffffffffffffffffffffff1673ffffffffffffffffffffffffffffffffffffffff16815260200190815260200160002060009054906101000a900460ff16151514905091905056fea265627a7a72315820607f1e38e3e8399a3488027bd2729682ae6519eb344fcf1fc174d872bd931a1c64736f6c63430005100032",
  "source": "pragma solidity >=0.5.0 <0.6.0;\r\n\r\ncontract IRS {\r\n    address[] private irsIds;\r\n    mapping(address=>bool) private addressToIrsExists;\r\n    uint private TAX_RATE = 10;\r\n\r\n    modifier messageFromIRS(address _msgFrom) {\r\n        require(isAddressFromIrs(_msgFrom) == true, \"Msg is not from valid IRS user.\");\r\n        _;\r\n    }\r\n\r\n    event TaxRateChanged(uint newRate);\r\n\r\n    constructor() public {\r\n        _addNewIrsId(0xA3dCb6c670a83Eb68C65Ecb8D6Dd6dfADBF429bE); //Joy address\r\n    }\r\n    \r\n    function _addNewIrsId(address _newIrsId) private {\r\n        require(addressToIrsExists[_newIrsId] == false, \"IRS id already exists\");\r\n        irsIds.push(_newIrsId);\r\n        addressToIrsExists[_newIrsId] = true;\r\n    }\r\n\r\n    function isAddressFromIrs(address _address) public view returns (bool) {\r\n        return addressToIrsExists[_address] == true;\r\n    }\r\n\r\n    function addNewIrsId(address _newIrsId) internal messageFromIRS(msg.sender) {\r\n        _addNewIrsId(_newIrsId);\r\n    }\r\n\r\n    function getIRSTaxRate() internal view returns (uint) {\r\n        return TAX_RATE;\r\n    }\r\n\r\n    function changeIRSTaxRate(uint _newRate) internal messageFromIRS(msg.sender) {\r\n        require(_newRate >= 0 && _newRate <= 100, \"Invalid tax rate submitted\");\r\n        TAX_RATE = _newRate;\r\n        emit TaxRateChanged(_newRate);\r\n    }\r\n}",
  "sourcePath": "C:\\Users\\Joy\\Documents\\cs481\\taxchain\\Contracts\\contracts\\IRS.sol",
  "compiler": {
    "name": "solc",
    "version": "0.5.16+commit.9c3226ce.Emscripten.clang"
  },
  "schemaVersion": "3.0.23",
  "updatedAt": "2020-04-23T18:57:50.475Z",
  "devdoc": {
    "methods": {}
  },
  "userdoc": {
    "methods": {}
  }
}