{
  "contractName": "TaxChain",
  "abi": [
    {
      "inputs": [],
      "payable": false,
      "stateMutability": "nonpayable",
      "type": "constructor"
    },
    {
      "anonymous": false,
      "inputs": [
        {
          "indexed": false,
          "internalType": "address",
          "name": "employeeId",
          "type": "address"
        },
        {
          "indexed": false,
          "internalType": "address",
          "name": "employerId",
          "type": "address"
        }
      ],
      "name": "EmployeeAcceptedEmployer",
      "type": "event"
    },
    {
      "anonymous": false,
      "inputs": [
        {
          "indexed": false,
          "internalType": "address",
          "name": "employeeId",
          "type": "address"
        }
      ],
      "name": "EmployeeRegistered",
      "type": "event"
    },
    {
      "anonymous": false,
      "inputs": [
        {
          "indexed": false,
          "internalType": "address",
          "name": "employeeId",
          "type": "address"
        },
        {
          "indexed": false,
          "internalType": "address",
          "name": "employerId",
          "type": "address"
        }
      ],
      "name": "EmployeeRemovedEmployer",
      "type": "event"
    },
    {
      "anonymous": false,
      "inputs": [
        {
          "indexed": false,
          "internalType": "address",
          "name": "employerId",
          "type": "address"
        }
      ],
      "name": "EmployerRegistered",
      "type": "event"
    },
    {
      "anonymous": false,
      "inputs": [
        {
          "indexed": false,
          "internalType": "address",
          "name": "employeeId",
          "type": "address"
        },
        {
          "indexed": false,
          "internalType": "uint256",
          "name": "year",
          "type": "uint256"
        },
        {
          "indexed": false,
          "internalType": "uint256",
          "name": "month",
          "type": "uint256"
        },
        {
          "indexed": false,
          "internalType": "address",
          "name": "employerId",
          "type": "address"
        },
        {
          "indexed": false,
          "internalType": "uint256",
          "name": "amount",
          "type": "uint256"
        }
      ],
      "name": "SalaryAdded",
      "type": "event"
    },
    {
      "anonymous": false,
      "inputs": [
        {
          "indexed": false,
          "internalType": "uint256",
          "name": "newRate",
          "type": "uint256"
        }
      ],
      "name": "TaxRateChanged",
      "type": "event"
    },
    {
      "constant": true,
      "inputs": [
        {
          "internalType": "address",
          "name": "_address",
          "type": "address"
        }
      ],
      "name": "isAddressFromIrs",
      "outputs": [
        {
          "internalType": "bool",
          "name": "",
          "type": "bool"
        }
      ],
      "payable": false,
      "stateMutability": "view",
      "type": "function"
    },
    {
      "constant": true,
      "inputs": [
        {
          "internalType": "address",
          "name": "_employeeId",
          "type": "address"
        }
      ],
      "name": "getEmployeeRegistrationTime",
      "outputs": [
        {
          "internalType": "uint256",
          "name": "",
          "type": "uint256"
        }
      ],
      "payable": false,
      "stateMutability": "view",
      "type": "function"
    },
    {
      "constant": false,
      "inputs": [
        {
          "internalType": "address",
          "name": "_newEmployeeId",
          "type": "address"
        }
      ],
      "name": "registerEmployee",
      "outputs": [],
      "payable": false,
      "stateMutability": "nonpayable",
      "type": "function"
    },
    {
      "constant": false,
      "inputs": [
        {
          "internalType": "address",
          "name": "_newEmployerId",
          "type": "address"
        }
      ],
      "name": "registerEmployer",
      "outputs": [],
      "payable": false,
      "stateMutability": "nonpayable",
      "type": "function"
    },
    {
      "constant": false,
      "inputs": [
        {
          "internalType": "address",
          "name": "_employeeId",
          "type": "address"
        },
        {
          "internalType": "address",
          "name": "_employerId",
          "type": "address"
        }
      ],
      "name": "employeeAcceptEmployer",
      "outputs": [],
      "payable": false,
      "stateMutability": "nonpayable",
      "type": "function"
    },
    {
      "constant": false,
      "inputs": [
        {
          "internalType": "address",
          "name": "_employeeId",
          "type": "address"
        },
        {
          "internalType": "address",
          "name": "_employerId",
          "type": "address"
        }
      ],
      "name": "employeeRemoveEmployerFromAcceptedList",
      "outputs": [],
      "payable": false,
      "stateMutability": "nonpayable",
      "type": "function"
    },
    {
      "constant": true,
      "inputs": [
        {
          "internalType": "address",
          "name": "_employeeId",
          "type": "address"
        },
        {
          "internalType": "uint256",
          "name": "_year",
          "type": "uint256"
        }
      ],
      "name": "getEmployeeTotalIncomeAYear",
      "outputs": [
        {
          "internalType": "uint256",
          "name": "",
          "type": "uint256"
        }
      ],
      "payable": false,
      "stateMutability": "view",
      "type": "function"
    },
    {
      "constant": false,
      "inputs": [
        {
          "internalType": "address",
          "name": "_employeeId",
          "type": "address"
        },
        {
          "internalType": "address",
          "name": "_employerId",
          "type": "address"
        },
        {
          "internalType": "uint256",
          "name": "_year",
          "type": "uint256"
        },
        {
          "internalType": "uint8",
          "name": "_month",
          "type": "uint8"
        },
        {
          "internalType": "uint256",
          "name": "_salaryAmount",
          "type": "uint256"
        }
      ],
      "name": "addEmployeeSalary",
      "outputs": [],
      "payable": false,
      "stateMutability": "nonpayable",
      "type": "function"
    },
    {
      "constant": true,
      "inputs": [],
      "name": "getAllEmployeeList",
      "outputs": [
        {
          "internalType": "address[]",
          "name": "",
          "type": "address[]"
        }
      ],
      "payable": false,
      "stateMutability": "view",
      "type": "function"
    },
    {
      "constant": true,
      "inputs": [],
      "name": "getAllEmployerList",
      "outputs": [
        {
          "internalType": "address[]",
          "name": "",
          "type": "address[]"
        }
      ],
      "payable": false,
      "stateMutability": "view",
      "type": "function"
    },
    {
      "constant": true,
      "inputs": [
        {
          "internalType": "uint256",
          "name": "_year",
          "type": "uint256"
        }
      ],
      "name": "getAllEmployeeTotalIncomeListAYear",
      "outputs": [
        {
          "internalType": "uint256[]",
          "name": "",
          "type": "uint256[]"
        }
      ],
      "payable": false,
      "stateMutability": "view",
      "type": "function"
    },
    {
      "constant": true,
      "inputs": [
        {
          "internalType": "address",
          "name": "_employeeId",
          "type": "address"
        },
        {
          "internalType": "uint256",
          "name": "_month",
          "type": "uint256"
        },
        {
          "internalType": "uint256",
          "name": "_year",
          "type": "uint256"
        }
      ],
      "name": "getEmployerIdsForEmployeeAndMonthAndYear",
      "outputs": [
        {
          "internalType": "address[]",
          "name": "",
          "type": "address[]"
        }
      ],
      "payable": false,
      "stateMutability": "view",
      "type": "function"
    },
    {
      "constant": true,
      "inputs": [
        {
          "internalType": "address",
          "name": "_employeeId",
          "type": "address"
        },
        {
          "internalType": "uint256",
          "name": "_month",
          "type": "uint256"
        },
        {
          "internalType": "uint256",
          "name": "_year",
          "type": "uint256"
        }
      ],
      "name": "getSalaryAmountsForEmployeeAndMonthAndYear",
      "outputs": [
        {
          "internalType": "uint256[]",
          "name": "",
          "type": "uint256[]"
        }
      ],
      "payable": false,
      "stateMutability": "view",
      "type": "function"
    },
    {
      "constant": false,
      "inputs": [
        {
          "internalType": "address",
          "name": "_newIrsId",
          "type": "address"
        }
      ],
      "name": "registerIRS",
      "outputs": [],
      "payable": false,
      "stateMutability": "nonpayable",
      "type": "function"
    },
    {
      "constant": true,
      "inputs": [],
      "name": "getMessageSenderAddressType",
      "outputs": [
        {
          "internalType": "string",
          "name": "",
          "type": "string"
        }
      ],
      "payable": false,
      "stateMutability": "view",
      "type": "function"
    },
    {
      "constant": true,
      "inputs": [],
      "name": "getTaxRate",
      "outputs": [
        {
          "internalType": "uint256",
          "name": "",
          "type": "uint256"
        }
      ],
      "payable": false,
      "stateMutability": "view",
      "type": "function"
    },
    {
      "constant": false,
      "inputs": [
        {
          "internalType": "uint256",
          "name": "_newRate",
          "type": "uint256"
        }
      ],
      "name": "changeTaxRate",
      "outputs": [],
      "payable": false,
      "stateMutability": "nonpayable",
      "type": "function"
    }
  ],
  "bytecode": "0x6080604052600a6007553480156200001657600080fd5b506200003c73a3dcb6c670a83eb68c65ecb8d6dd6dfadbf429be6200004960201b60201c565b42600b81905550620001d1565b60001515600660008373ffffffffffffffffffffffffffffffffffffffff1673ffffffffffffffffffffffffffffffffffffffff16815260200190815260200160002060009054906101000a900460ff1615151462000110576040517f08c379a00000000000000000000000000000000000000000000000000000000081526004018080602001828103825260158152602001807f49525320696420616c726561647920657869737473000000000000000000000081525060200191505060405180910390fd5b60058190806001815401808255809150509060018203906000526020600020016000909192909190916101000a81548173ffffffffffffffffffffffffffffffffffffffff021916908373ffffffffffffffffffffffffffffffffffffffff160217905550506001600660008373ffffffffffffffffffffffffffffffffffffffff1673ffffffffffffffffffffffffffffffffffffffff16815260200190815260200160002060006101000a81548160ff02191690831515021790555050565b6133ea80620001e16000396000f3fe608060405234801561001057600080fd5b506004361061010b5760003560e01c8063bbdf3b57116100a2578063d33dc3ef11610071578063d33dc3ef146105a9578063dca06c341461062e578063df8faf6d146106db578063eb9943d91461071f578063f0f26c481461074d5761010b565b8063bbdf3b5714610403578063cb66667f146104b0578063cccfe930146104ce578063d038ecfc146105515761010b565b8063ad156d1e116100de578063ad156d1e1461029d578063b401cdc5146102fc578063b602c2cd1461035b578063b71289c7146103bf5761010b565b806313593deb14610110578063418250c91461017457806355ba1e74146101f75780635786a55214610259575b600080fd5b6101726004803603604081101561012657600080fd5b81019080803573ffffffffffffffffffffffffffffffffffffffff169060200190929190803573ffffffffffffffffffffffffffffffffffffffff1690602001909291905050506107a9565b005b61017c6109cb565b6040518080602001828103825283818151815260200191508051906020019080838360005b838110156101bc5780820151818401526020810190506101a1565b50505050905090810190601f1680156101e95780820380516001836020036101000a031916815260200191505b509250505060405180910390f35b6102436004803603604081101561020d57600080fd5b81019080803573ffffffffffffffffffffffffffffffffffffffff16906020019092919080359060200190929190505050610b90565b6040518082815260200191505060405180910390f35b61029b6004803603602081101561026f57600080fd5b81019080803573ffffffffffffffffffffffffffffffffffffffff169060200190929190505050610c6c565b005b6102a561107c565b6040518080602001828103825283818151815260200191508051906020019060200280838360005b838110156102e85780820151818401526020810190506102cd565b505050509050019250505060405180910390f35b61030461110a565b6040518080602001828103825283818151815260200191508051906020019060200280838360005b8381101561034757808201518184015260208101905061032c565b505050509050019250505060405180910390f35b6103bd6004803603604081101561037157600080fd5b81019080803573ffffffffffffffffffffffffffffffffffffffff169060200190929190803573ffffffffffffffffffffffffffffffffffffffff169060200190929190505050611198565b005b610401600480360360208110156103d557600080fd5b81019080803573ffffffffffffffffffffffffffffffffffffffff1690602001909291905050506113ba565b005b6104596004803603606081101561041957600080fd5b81019080803573ffffffffffffffffffffffffffffffffffffffff169060200190929190803590602001909291908035906020019092919050505061171b565b6040518080602001828103825283818151815260200191508051906020019060200280838360005b8381101561049c578082015181840152602081019050610481565b505050509050019250505060405180910390f35b6104b861179b565b6040518082815260200191505060405180910390f35b6104fa600480360360208110156104e457600080fd5b81019080803590602001909291905050506117aa565b6040518080602001828103825283818151815260200191508051906020019060200280838360005b8381101561053d578082015181840152602081019050610522565b505050509050019250505060405180910390f35b6105936004803603602081101561056757600080fd5b81019080803573ffffffffffffffffffffffffffffffffffffffff16906020019092919050505061191d565b6040518082815260200191505060405180910390f35b61062c600480360360a08110156105bf57600080fd5b81019080803573ffffffffffffffffffffffffffffffffffffffff169060200190929190803573ffffffffffffffffffffffffffffffffffffffff16906020019092919080359060200190929190803560ff16906020019092919080359060200190929190505050611a98565b005b6106846004803603606081101561064457600080fd5b81019080803573ffffffffffffffffffffffffffffffffffffffff1690602001909291908035906020019092919080359060200190929190505050611c3f565b6040518080602001828103825283818151815260200191508051906020019060200280838360005b838110156106c75780820151818401526020810190506106ac565b505050509050019250505060405180910390f35b61071d600480360360208110156106f157600080fd5b81019080803573ffffffffffffffffffffffffffffffffffffffff169060200190929190505050611cbf565b005b61074b6004803603602081101561073557600080fd5b8101908080359060200190929190505050611ccb565b005b61078f6004803603602081101561076357600080fd5b81019080803573ffffffffffffffffffffffffffffffffffffffff169060200190929190505050611cd7565b604051808215151515815260200191505060405180910390f35b8160011515600d60008373ffffffffffffffffffffffffffffffffffffffff1673ffffffffffffffffffffffffffffffffffffffff16815260200190815260200160002060009054906101000a900460ff16151514610870576040517f08c379a00000000000000000000000000000000000000000000000000000000081526004018080602001828103825260178152602001807f456d706c6f79656520646f6573206e6f7420657869737400000000000000000081525060200191505060405180910390fd5b8160011515600e60008373ffffffffffffffffffffffffffffffffffffffff1673ffffffffffffffffffffffffffffffffffffffff16815260200190815260200160002060009054906101000a900460ff16151514610937576040517f08c379a00000000000000000000000000000000000000000000000000000000081526004018080602001828103825260178152602001807f456d706c6f79657220646f6573206e6f7420657869737400000000000000000081525060200191505060405180910390fd5b3373ffffffffffffffffffffffffffffffffffffffff168473ffffffffffffffffffffffffffffffffffffffff16146109bb576040517f08c379a00000000000000000000000000000000000000000000000000000000081526004018080602001828103825260298152602001806132996029913960400191505060405180910390fd5b6109c58484611d34565b50505050565b60606000339050600115156109df82611cd7565b15151415610a25576040518060400160405280600381526020017f4952530000000000000000000000000000000000000000000000000000000000815250915050610b8d565b60011515600d60008373ffffffffffffffffffffffffffffffffffffffff1673ffffffffffffffffffffffffffffffffffffffff16815260200190815260200160002060009054906101000a900460ff1615151415610abc576040518060400160405280600881526020017f454d504c4f594545000000000000000000000000000000000000000000000000815250915050610b8d565b60011515600e60008373ffffffffffffffffffffffffffffffffffffffff1673ffffffffffffffffffffffffffffffffffffffff16815260200190815260200160002060009054906101000a900460ff1615151415610b53576040518060400160405280600881526020017f454d504c4f594552000000000000000000000000000000000000000000000000815250915050610b8d565b6040518060400160405280600481526020017f4e4f4e45000000000000000000000000000000000000000000000000000000008152509150505b90565b60008260011515600d60008373ffffffffffffffffffffffffffffffffffffffff1673ffffffffffffffffffffffffffffffffffffffff16815260200190815260200160002060009054906101000a900460ff16151514610c59576040517f08c379a00000000000000000000000000000000000000000000000000000000081526004018080602001828103825260178152602001807f456d706c6f79656520646f6573206e6f7420657869737400000000000000000081525060200191505060405180910390fd5b610c638484611fce565b91505092915050565b8060001515600d60008373ffffffffffffffffffffffffffffffffffffffff1673ffffffffffffffffffffffffffffffffffffffff16815260200190815260200160002060009054906101000a900460ff16151514610d16576040517f08c379a00000000000000000000000000000000000000000000000000000000081526004018080602001828103825260268152602001806132c26026913960400191505060405180910390fd5b60001515600e60008373ffffffffffffffffffffffffffffffffffffffff1673ffffffffffffffffffffffffffffffffffffffff16815260200190815260200160002060009054906101000a900460ff16151514610dbf576040517f08c379a00000000000000000000000000000000000000000000000000000000081526004018080602001828103825260268152602001806132e86026913960400191505060405180910390fd5b60001515610dcc82611cd7565b151514610e24576040517f08c379a00000000000000000000000000000000000000000000000000000000081526004018080602001828103825260218152602001806133336021913960400191505060405180910390fd5b3373ffffffffffffffffffffffffffffffffffffffff168273ffffffffffffffffffffffffffffffffffffffff1614610ea8576040517f08c379a00000000000000000000000000000000000000000000000000000000081526004018080602001828103825260298152602001806132996029913960400191505060405180910390fd5b60088290806001815401808255809150509060018203906000526020600020016000909192909190916101000a81548173ffffffffffffffffffffffffffffffffffffffff021916908373ffffffffffffffffffffffffffffffffffffffff1602179055505060006107e490505b6108488111610f7857600a600082815260200190815260200160002060009080600181540180825580915050906001820390600052602060002001600090919290919091505550610f716001826120d490919063ffffffff16565b9050610f16565b506001600d60008473ffffffffffffffffffffffffffffffffffffffff1673ffffffffffffffffffffffffffffffffffffffff16815260200190815260200160002060006101000a81548160ff02191690831515021790555042600c60008473ffffffffffffffffffffffffffffffffffffffff1673ffffffffffffffffffffffffffffffffffffffff168152602001908152602001600020819055507f0db3a4aa2c7c447948fc41791351128418b0b95d158de36cf07dfab93776ef1082604051808273ffffffffffffffffffffffffffffffffffffffff1673ffffffffffffffffffffffffffffffffffffffff16815260200191505060405180910390a15050565b6060600980548060200260200160405190810160405280929190818152602001828054801561110057602002820191906000526020600020905b8160009054906101000a900473ffffffffffffffffffffffffffffffffffffffff1673ffffffffffffffffffffffffffffffffffffffff16815260200190600101908083116110b6575b5050505050905090565b6060600880548060200260200160405190810160405280929190818152602001828054801561118e57602002820191906000526020600020905b8160009054906101000a900473ffffffffffffffffffffffffffffffffffffffff1673ffffffffffffffffffffffffffffffffffffffff1681526020019060010190808311611144575b5050505050905090565b8160011515600d60008373ffffffffffffffffffffffffffffffffffffffff1673ffffffffffffffffffffffffffffffffffffffff16815260200190815260200160002060009054906101000a900460ff1615151461125f576040517f08c379a00000000000000000000000000000000000000000000000000000000081526004018080602001828103825260178152602001807f456d706c6f79656520646f6573206e6f7420657869737400000000000000000081525060200191505060405180910390fd5b8160011515600e60008373ffffffffffffffffffffffffffffffffffffffff1673ffffffffffffffffffffffffffffffffffffffff16815260200190815260200160002060009054906101000a900460ff16151514611326576040517f08c379a00000000000000000000000000000000000000000000000000000000081526004018080602001828103825260178152602001807f456d706c6f79657220646f6573206e6f7420657869737400000000000000000081525060200191505060405180910390fd5b3373ffffffffffffffffffffffffffffffffffffffff168473ffffffffffffffffffffffffffffffffffffffff16146113aa576040517f08c379a00000000000000000000000000000000000000000000000000000000081526004018080602001828103825260298152602001806132996029913960400191505060405180910390fd5b6113b484846120f0565b50505050565b8060001515600d60008373ffffffffffffffffffffffffffffffffffffffff1673ffffffffffffffffffffffffffffffffffffffff16815260200190815260200160002060009054906101000a900460ff16151514611464576040517f08c379a00000000000000000000000000000000000000000000000000000000081526004018080602001828103825260268152602001806132c26026913960400191505060405180910390fd5b60001515600e60008373ffffffffffffffffffffffffffffffffffffffff1673ffffffffffffffffffffffffffffffffffffffff16815260200190815260200160002060009054906101000a900460ff1615151461150d576040517f08c379a00000000000000000000000000000000000000000000000000000000081526004018080602001828103825260268152602001806132e86026913960400191505060405180910390fd5b6000151561151a82611cd7565b151514611572576040517f08c379a00000000000000000000000000000000000000000000000000000000081526004018080602001828103825260218152602001806133336021913960400191505060405180910390fd5b3373ffffffffffffffffffffffffffffffffffffffff168273ffffffffffffffffffffffffffffffffffffffff16146115f6576040517f08c379a000000000000000000000000000000000000000000000000000000000815260040180806020018281038252602981526020018061338d6029913960400191505060405180910390fd5b60098290806001815401808255809150509060018203906000526020600020016000909192909190916101000a81548173ffffffffffffffffffffffffffffffffffffffff021916908373ffffffffffffffffffffffffffffffffffffffff160217905550506001600e60008473ffffffffffffffffffffffffffffffffffffffff1673ffffffffffffffffffffffffffffffffffffffff16815260200190815260200160002060006101000a81548160ff0219169083151502179055507f320f0bf1a83ce6d92e80948ac3800b41c7ca41667fc5e5ce639b73129dff3bdb82604051808273ffffffffffffffffffffffffffffffffffffffff1673ffffffffffffffffffffffffffffffffffffffff16815260200191505060405180910390a15050565b606033846001151561172d838361238a565b151514611785576040517f08c379a00000000000000000000000000000000000000000000000000000000081526004018080602001828103825260398152602001806133546039913960400191505060405180910390fd5b611790868686612453565b925050509392505050565b60006117a561263e565b905090565b6060816107e481101580156117c157506108488111155b611833576040517f08c379a000000000000000000000000000000000000000000000000000000000815260040180806020018281038252600c8152602001807f496e76616c69642079656172000000000000000000000000000000000000000081525060200191505060405180910390fd5b6060600a600085815260200190815260200160002080548060200260200160405190810160405280929190818152602001828054801561189257602002820191906000526020600020905b81548152602001906001019080831161187e575b5050505050905060008090505b600880549050811015611912576118ed600882815481106118bc57fe5b9060005260206000200160009054906101000a900473ffffffffffffffffffffffffffffffffffffffff1686610b90565b8282815181106118f957fe5b602002602001018181525050808060010191505061189f565b508092505050919050565b60008160011515600d60008373ffffffffffffffffffffffffffffffffffffffff1673ffffffffffffffffffffffffffffffffffffffff16815260200190815260200160002060009054906101000a900460ff161515146119e6576040517f08c379a00000000000000000000000000000000000000000000000000000000081526004018080602001828103825260178152602001807f456d706c6f79656520646f6573206e6f7420657869737400000000000000000081525060200191505060405180910390fd5b3383600115156119f6838361238a565b151514611a4e576040517f08c379a00000000000000000000000000000000000000000000000000000000081526004018080602001828103825260398152602001806133546039913960400191505060405180910390fd5b600c60008673ffffffffffffffffffffffffffffffffffffffff1673ffffffffffffffffffffffffffffffffffffffff168152602001908152602001600020549350505050919050565b3360011515600e60008373ffffffffffffffffffffffffffffffffffffffff1673ffffffffffffffffffffffffffffffffffffffff16815260200190815260200160002060009054906101000a900460ff16151514611b5f576040517f08c379a00000000000000000000000000000000000000000000000000000000081526004018080602001828103825260178152602001807f456d706c6f79657220646f6573206e6f7420657869737400000000000000000081525060200191505060405180910390fd5b8560011515600d60008373ffffffffffffffffffffffffffffffffffffffff1673ffffffffffffffffffffffffffffffffffffffff16815260200190815260200160002060009054906101000a900460ff16151514611c26576040517f08c379a00000000000000000000000000000000000000000000000000000000081526004018080602001828103825260178152602001807f456d706c6f79656520646f6573206e6f7420657869737400000000000000000081525060200191505060405180910390fd5b611c3687868660ff168987612648565b50505050505050565b6060338460011515611c51838361238a565b151514611ca9576040517f08c379a00000000000000000000000000000000000000000000000000000000081526004018080602001828103825260398152602001806133546039913960400191505060405180910390fd5b611cb48686866128a9565b925050509392505050565b611cc881612ac9565b50565b611cd481612b59565b50565b600060011515600660008473ffffffffffffffffffffffffffffffffffffffff1673ffffffffffffffffffffffffffffffffffffffff16815260200190815260200160002060009054906101000a900460ff161515149050919050565b3373ffffffffffffffffffffffffffffffffffffffff168273ffffffffffffffffffffffffffffffffffffffff1614611db8576040517f08c379a00000000000000000000000000000000000000000000000000000000081526004018080602001828103825260298152602001806132996029913960400191505060405180910390fd5b60011515600260008473ffffffffffffffffffffffffffffffffffffffff1673ffffffffffffffffffffffffffffffffffffffff16815260200190815260200160002060008373ffffffffffffffffffffffffffffffffffffffff1673ffffffffffffffffffffffffffffffffffffffff16815260200190815260200160002060009054906101000a900460ff16151514611e9e576040517f08c379a00000000000000000000000000000000000000000000000000000000081526004018080602001828103825260268152602001806132036026913960400191505060405180910390fd5b6000600260008473ffffffffffffffffffffffffffffffffffffffff1673ffffffffffffffffffffffffffffffffffffffff16815260200190815260200160002060008373ffffffffffffffffffffffffffffffffffffffff1673ffffffffffffffffffffffffffffffffffffffff16815260200190815260200160002060006101000a81548160ff0219169083151502179055507f8f4d778cb7149b2f23f072f7b0dd83e5ed3a5efd93d8ef683031a590aac658ae8282604051808373ffffffffffffffffffffffffffffffffffffffff1673ffffffffffffffffffffffffffffffffffffffff1681526020018273ffffffffffffffffffffffffffffffffffffffff1673ffffffffffffffffffffffffffffffffffffffff1681526020019250505060405180910390a15050565b6000816107e48110158015611fe557506108488111155b612057576040517f08c379a000000000000000000000000000000000000000000000000000000000815260040180806020018281038252600c8152602001807f496e76616c69642079656172000000000000000000000000000000000000000081525060200191505060405180910390fd5b600015156120658585612ca2565b1515141561207657600091506120cd565b6003600084815260200190815260200160002060008573ffffffffffffffffffffffffffffffffffffffff1673ffffffffffffffffffffffffffffffffffffffff1681526020019081526020016000206001015491505b5092915050565b6000808284019050838110156120e657fe5b8091505092915050565b3373ffffffffffffffffffffffffffffffffffffffff168273ffffffffffffffffffffffffffffffffffffffff1614612174576040517f08c379a00000000000000000000000000000000000000000000000000000000081526004018080602001828103825260298152602001806132996029913960400191505060405180910390fd5b60001515600260008473ffffffffffffffffffffffffffffffffffffffff1673ffffffffffffffffffffffffffffffffffffffff16815260200190815260200160002060008373ffffffffffffffffffffffffffffffffffffffff1673ffffffffffffffffffffffffffffffffffffffff16815260200190815260200160002060009054906101000a900460ff1615151461225a576040517f08c379a00000000000000000000000000000000000000000000000000000000081526004018080602001828103825260268152602001806132516026913960400191505060405180910390fd5b6001600260008473ffffffffffffffffffffffffffffffffffffffff1673ffffffffffffffffffffffffffffffffffffffff16815260200190815260200160002060008373ffffffffffffffffffffffffffffffffffffffff1673ffffffffffffffffffffffffffffffffffffffff16815260200190815260200160002060006101000a81548160ff0219169083151502179055507f153ea0ab2fbd5d528e3c5edd58c6f84f337d61d4beb80f6a58372d2bbb2f713d8282604051808373ffffffffffffffffffffffffffffffffffffffff1673ffffffffffffffffffffffffffffffffffffffff1681526020018273ffffffffffffffffffffffffffffffffffffffff1673ffffffffffffffffffffffffffffffffffffffff1681526020019250505060405180910390a15050565b60006001151561239984611cd7565b151514156123aa576001905061244d565b8173ffffffffffffffffffffffffffffffffffffffff168373ffffffffffffffffffffffffffffffffffffffff16146123e6576000905061244d565b60001515600d60008573ffffffffffffffffffffffffffffffffffffffff1673ffffffffffffffffffffffffffffffffffffffff16815260200190815260200160002060009054906101000a900460ff1615151415612448576000905061244d565b600190505b92915050565b606082600181101580156124685750600c8111155b6124da576040517f08c379a000000000000000000000000000000000000000000000000000000000815260040180806020018281038252600d8152602001807f496e76616c6964206d6f6e74680000000000000000000000000000000000000081525060200191505060405180910390fd5b826107e481101580156124ef57506108488111155b612561576040517f08c379a000000000000000000000000000000000000000000000000000000000815260040180806020018281038252600c8152602001807f496e76616c69642079656172000000000000000000000000000000000000000081525060200191505060405180910390fd5b6000151561256f8786612ca2565b1515141561258257606080935050612635565b6001600085815260200190815260200160002060008773ffffffffffffffffffffffffffffffffffffffff1673ffffffffffffffffffffffffffffffffffffffff168152602001908152602001600020600086815260200190815260200160002080548060200260200160405190810160405280929190818152602001828054801561262d57602002820191906000526020600020905b815481526020019060010190808311612619575b505050505092505b50509392505050565b6000600754905090565b826001811015801561265b5750600c8111155b6126cd576040517f08c379a000000000000000000000000000000000000000000000000000000000815260040180806020018281038252600d8152602001807f496e76616c6964206d6f6e74680000000000000000000000000000000000000081525060200191505060405180910390fd5b858360011515600260008473ffffffffffffffffffffffffffffffffffffffff1673ffffffffffffffffffffffffffffffffffffffff16815260200190815260200160002060008373ffffffffffffffffffffffffffffffffffffffff1673ffffffffffffffffffffffffffffffffffffffff16815260200190815260200160002060009054906101000a900460ff161515146127b5576040517f08c379a000000000000000000000000000000000000000000000000000000000815260040180806020018281038252602581526020018061330e6025913960400191505060405180910390fd5b6000841161280e576040517f08c379a00000000000000000000000000000000000000000000000000000000081526004018080602001828103825260228152602001806132776022913960400191505060405180910390fd5b8473ffffffffffffffffffffffffffffffffffffffff163373ffffffffffffffffffffffffffffffffffffffff1614612892576040517f08c379a00000000000000000000000000000000000000000000000000000000081526004018080602001828103825260288152602001806132296028913960400191505060405180910390fd5b61289f8888888888612d11565b5050505050505050565b606082600181101580156128be5750600c8111155b612930576040517f08c379a000000000000000000000000000000000000000000000000000000000815260040180806020018281038252600d8152602001807f496e76616c6964206d6f6e74680000000000000000000000000000000000000081525060200191505060405180910390fd5b826107e4811015801561294557506108488111155b6129b7576040517f08c379a000000000000000000000000000000000000000000000000000000000815260040180806020018281038252600c8152602001807f496e76616c69642079656172000000000000000000000000000000000000000081525060200191505060405180910390fd5b600015156129c58786612ca2565b151514156129d857606080935050612ac0565b60008085815260200190815260200160002060008773ffffffffffffffffffffffffffffffffffffffff1673ffffffffffffffffffffffffffffffffffffffff1681526020019081526020016000206000868152602001908152602001600020805480602002602001604051908101604052809291908181526020018280548015612ab857602002820191906000526020600020905b8160009054906101000a900473ffffffffffffffffffffffffffffffffffffffff1673ffffffffffffffffffffffffffffffffffffffff1681526020019060010190808311612a6e575b505050505092505b50509392505050565b3360011515612ad782611cd7565b151514612b4c576040517f08c379a000000000000000000000000000000000000000000000000000000000815260040180806020018281038252601f8152602001807f4d7367206973206e6f742066726f6d2076616c69642049525320757365722e0081525060200191505060405180910390fd5b612b558261307b565b5050565b3360011515612b6782611cd7565b151514612bdc576040517f08c379a000000000000000000000000000000000000000000000000000000000815260040180806020018281038252601f8152602001807f4d7367206973206e6f742066726f6d2076616c69642049525320757365722e0081525060200191505060405180910390fd5b60008210158015612bee575060648211155b612c60576040517f08c379a000000000000000000000000000000000000000000000000000000000815260040180806020018281038252601a8152602001807f496e76616c6964207461782072617465207375626d697474656400000000000081525060200191505060405180910390fd5b816007819055507fbe89dc2f9769e9896808a0f0983380fed3225e0784b99b98d3eec9ccb5018528826040518082815260200191505060405180910390a15050565b6000600115156004600084815260200190815260200160002060008573ffffffffffffffffffffffffffffffffffffffff1673ffffffffffffffffffffffffffffffffffffffff16815260200190815260200160002060009054906101000a900460ff16151514905092915050565b836107e48110158015612d2657506108488111155b612d98576040517f08c379a000000000000000000000000000000000000000000000000000000000815260040180806020018281038252600c8152602001807f496e76616c69642079656172000000000000000000000000000000000000000081525060200191505060405180910390fd5b60016004600087815260200190815260200160002060008873ffffffffffffffffffffffffffffffffffffffff1673ffffffffffffffffffffffffffffffffffffffff16815260200190815260200160002060006101000a81548160ff02191690831515021790555060006003600087815260200190815260200160002060008873ffffffffffffffffffffffffffffffffffffffff1673ffffffffffffffffffffffffffffffffffffffff1681526020019081526020016000209050612e6c8382600101546120d490919063ffffffff16565b816001018190555060008087815260200190815260200160002060008873ffffffffffffffffffffffffffffffffffffffff1673ffffffffffffffffffffffffffffffffffffffff16815260200190815260200160002060008681526020019081526020016000208490806001815401808255809150509060018203906000526020600020016000909192909190916101000a81548173ffffffffffffffffffffffffffffffffffffffff021916908373ffffffffffffffffffffffffffffffffffffffff160217905550506001600087815260200190815260200160002060008873ffffffffffffffffffffffffffffffffffffffff1673ffffffffffffffffffffffffffffffffffffffff16815260200190815260200160002060008681526020019081526020016000208390806001815401808255809150509060018203906000526020600020016000909192909190915055507fdb3f1e521b8ac0b25dda2186e0a1316ec2753093c1d1592f7d3402a72957aa658787878787604051808673ffffffffffffffffffffffffffffffffffffffff1673ffffffffffffffffffffffffffffffffffffffff1681526020018581526020018481526020018373ffffffffffffffffffffffffffffffffffffffff1673ffffffffffffffffffffffffffffffffffffffff1681526020018281526020019550505050505060405180910390a150505050505050565b60001515600660008373ffffffffffffffffffffffffffffffffffffffff1673ffffffffffffffffffffffffffffffffffffffff16815260200190815260200160002060009054906101000a900460ff16151514613141576040517f08c379a00000000000000000000000000000000000000000000000000000000081526004018080602001828103825260158152602001807f49525320696420616c726561647920657869737473000000000000000000000081525060200191505060405180910390fd5b60058190806001815401808255809150509060018203906000526020600020016000909192909190916101000a81548173ffffffffffffffffffffffffffffffffffffffff021916908373ffffffffffffffffffffffffffffffffffffffff160217905550506001600660008373ffffffffffffffffffffffffffffffffffffffff1673ffffffffffffffffffffffffffffffffffffffff16815260200190815260200160002060006101000a81548160ff0219169083151502179055505056fe456d706c6f79656520686173206e6f7420616363657074656420656d706c6f79657220796574456d706c6f796572732068696d73656c6620646964206e6f7420616464207468652073616c617279456d706c6f7965652068617320616c726561647920616363657074656420656d706c6f79657253616c6172792063616e206e6f74206265207a65726f206f72206e65676174697665456d706c6f7965652068696d73656c6620646964206e6f742073656e6420746865206d6573736167654164647265737320616c7265616479207265676973746572656420617320456d706c6f7965654164647265737320616c7265616479207265676973746572656420617320456d706c6f796572456d706c6f79656520686173206e6f742061636365707465642074686520636f6d70616e794164647265737320616c7265616479207265676973746572656420617320495253456d706c6f79656520696e666f726d6174696f6e206973206e6f742061636365737369626c6520746f204d6573736167652073656e6465722e456d706c6f7965722068696d73656c6620646964206e6f742073656e6420746865206d657373616765a265627a7a723158201839625144993a56bc687c66093d183d9e20c08140368e1d43519f9a59635a9664736f6c63430005100032",
  "source": "pragma solidity >=0.5.0 <0.6.0;\r\nimport \"./Employee.sol\";\r\nimport \"./IRS.sol\";\r\n\r\ncontract TaxChain is Employee, IRS {\r\n    using SafeMath for uint;\r\n\r\n    address[] private employeeIdList;\r\n    address[] private employerIdList;\r\n    mapping(uint=>uint[]) private employeeTotalIncomeMap;\r\n\r\n    uint private contractCreationTime;\r\n    \r\n    mapping(address=>uint) private employeeRegistrationTime;\r\n    \r\n    mapping(address=>bool) private addressToEmployeeExists;\r\n    mapping(address=>bool) private addressToEmployerExists;\r\n    \r\n    modifier employeeExists(address _employeeId) {\r\n        require(addressToEmployeeExists[_employeeId] == true, \"Employee does not exist\");\r\n        _;\r\n    }\r\n    \r\n    modifier employerExists(address _employerId) {\r\n        require(addressToEmployerExists[_employerId] == true, \"Employer does not exist\");\r\n        _;\r\n    }\r\n\r\n    modifier accountAddressDoesNotExists(address _newAddress) {\r\n        require(addressToEmployeeExists[_newAddress] == false, \"Address already registered as Employee\");\r\n        require(addressToEmployerExists[_newAddress] == false, \"Address already registered as Employer\");\r\n        require(isAddressFromIrs(_newAddress) == false, \"Address already registered as IRS\");\r\n        _;\r\n    }\r\n\r\n    event EmployeeRegistered(address employeeId);\r\n    event EmployerRegistered(address employerId);\r\n    \r\n    constructor() public {\r\n        contractCreationTime = now;\r\n    }\r\n\r\n    function getEmployeeRegistrationTime(address _employeeId) public view employeeExists(_employeeId) canAccessEmployeeInfo(msg.sender, _employeeId) returns (uint){\r\n        return employeeRegistrationTime[_employeeId];\r\n    }\r\n\r\n    function registerEmployee(address _newEmployeeId) public accountAddressDoesNotExists(_newEmployeeId) {\r\n        require(_newEmployeeId == msg.sender, \"Employee himself did not send the message\");\r\n        \r\n        employeeIdList.push(_newEmployeeId);\r\n\r\n        for(uint i=2020;i<=2120;i=i.add(1))\r\n            employeeTotalIncomeMap[i].push(0);\r\n        \r\n        addressToEmployeeExists[_newEmployeeId] = true;\r\n        employeeRegistrationTime[_newEmployeeId] = now;\r\n        \r\n        emit EmployeeRegistered(_newEmployeeId);\r\n    }\r\n\r\n    function registerEmployer(address _newEmployerId) public accountAddressDoesNotExists(_newEmployerId) {\r\n        require(_newEmployerId == msg.sender, \"Employer himself did not send the message\");\r\n        \r\n        employerIdList.push(_newEmployerId);\r\n        addressToEmployerExists[_newEmployerId] = true;\r\n        \r\n        emit EmployerRegistered(_newEmployerId);\r\n    }\r\n\r\n    function employeeAcceptEmployer(address _employeeId, address _employerId) public employeeExists(_employeeId) employerExists(_employerId) {\r\n        require(_employeeId == msg.sender, \"Employee himself did not send the message\");\r\n        acceptCompany(_employeeId, _employerId);\r\n    }\r\n\r\n    function employeeRemoveEmployerFromAcceptedList(address _employeeId, address _employerId) public employeeExists(_employeeId) employerExists(_employerId) {\r\n        require(_employeeId == msg.sender, \"Employee himself did not send the message\");\r\n        removeCompany(_employeeId, _employerId);\r\n    }\r\n\r\n    function getEmployeeTotalIncomeAYear(address _employeeId, uint _year) public view employeeExists(_employeeId) returns (uint) {\r\n        return getTotalIncome(_employeeId, _year);\r\n    }\r\n\r\n    function addEmployeeSalary(address _employeeId, address _employerId, uint _year, uint8 _month, uint _salaryAmount) public \r\n            employerExists(msg.sender) employeeExists(_employeeId) {\r\n        addSalary(_employeeId, _year, _month, _employerId, _salaryAmount);\r\n    }\r\n\r\n    function getAllEmployeeList() public view returns (address[] memory) {\r\n        return employeeIdList;\r\n    }\r\n\r\n    function getAllEmployerList() public view returns (address[] memory) {\r\n        return employerIdList;\r\n    }\r\n\r\n    function getAllEmployeeTotalIncomeListAYear(uint _year) public view validYear(_year) returns (uint[] memory) {\r\n        uint[] memory incomeList = employeeTotalIncomeMap[_year];\r\n        for(uint i=0;i<employeeIdList.length;i++){\r\n            incomeList[i] = getEmployeeTotalIncomeAYear(employeeIdList[i], _year);\r\n        }\r\n        return incomeList;\r\n    }\r\n\r\n    function getEmployerIdsForEmployeeAndMonthAndYear(address _employeeId, uint _month, uint _year) public view \r\n                canAccessEmployeeInfo(msg.sender, _employeeId) returns (address[] memory) {\r\n        return getEmployerIdsForEmployeeMonthAndYear(_employeeId, _month, _year);\r\n    }\r\n\r\n    function getSalaryAmountsForEmployeeAndMonthAndYear(address _employeeId, uint _month, uint _year) public view \r\n                canAccessEmployeeInfo(msg.sender, _employeeId) returns (uint[] memory) {\r\n        return getSalaryAmountsForEmployeeMonthAndYear(_employeeId, _month, _year);\r\n    }\r\n\r\n\r\n\r\n    modifier canAccessEmployeeInfo(address _fromAddress, address _targetInfoAddress) {\r\n        require(isMessageFromEmployeeOrIrs(_fromAddress, _targetInfoAddress) == true,\r\n                \"Employee information is not accessible to Message sender.\");\r\n                _;\r\n    }\r\n\r\n    function registerIRS(address _newIrsId) public {\r\n        addNewIrsId(_newIrsId);\r\n    }\r\n\r\n    function isMessageFromEmployeeOrIrs(address _fromAddress, address _targetInfoAddress) private view returns (bool) {\r\n        if(isAddressFromIrs(_fromAddress) == true)\r\n            return true;\r\n        if(_fromAddress != _targetInfoAddress)\r\n            return false;\r\n        if(addressToEmployeeExists[_fromAddress] == false)\r\n            return false;\r\n        return true;\r\n    }\r\n\r\n    function getMessageSenderAddressType() public view returns (string memory) {\r\n        address _address = msg.sender;\r\n        if(isAddressFromIrs(_address) == true)\r\n            return \"IRS\";\r\n        if(addressToEmployeeExists[_address] == true)\r\n            return \"EMPLOYEE\";\r\n        if(addressToEmployerExists[_address] == true)\r\n            return \"EMPLOYER\";\r\n        return \"NONE\";\r\n    }\r\n\r\n    function getTaxRate() public view returns (uint) {\r\n        return getIRSTaxRate();\r\n    }\r\n\r\n    function changeTaxRate(uint _newRate) public {\r\n        changeIRSTaxRate(_newRate);\r\n    }\r\n\r\n    // function getEmployeeTaxForYear(address _employeeId, uint _year) public view validYear(_year) returns(uint) {\r\n    //     uint income = getTotalIncome(_employeeId, _year);\r\n    //     uint taxRate = getIRSTaxRate();\r\n    //     if(taxRate == 0)\r\n    //         return 0;\r\n    //     uint tax = income.div(taxRate);\r\n    //     return tax;\r\n    // }\r\n\r\n}",
  "sourcePath": "C:\\Users\\Joy\\Documents\\cs481\\taxchain\\Contracts\\contracts\\TaxChain.sol",
  "compiler": {
    "name": "solc",
    "version": "0.5.16+commit.9c3226ce.Emscripten.clang"
  },
  "schemaVersion": "3.0.23",
  "updatedAt": "2020-05-01T06:29:42.008Z",
  "networkType": "ethereum",
  "devdoc": {
    "methods": {}
  },
  "userdoc": {
    "methods": {}
  }
}