{
  "contractName": "User",
  "abi": [
    {
      "inputs": [],
      "payable": false,
      "stateMutability": "nonpayable",
      "type": "constructor"
    },
    {
      "anonymous": false,
      "inputs": [
        {
          "indexed": false,
          "internalType": "uint256",
          "name": "_month",
          "type": "uint256"
        },
        {
          "indexed": false,
          "internalType": "address",
          "name": "_companyId",
          "type": "address"
        },
        {
          "indexed": false,
          "internalType": "uint256",
          "name": "_amount",
          "type": "uint256"
        }
      ],
      "name": "SalaryAdded",
      "type": "event"
    },
    {
      "constant": true,
      "inputs": [],
      "name": "totalIncome",
      "outputs": [
        {
          "internalType": "uint256",
          "name": "",
          "type": "uint256"
        }
      ],
      "payable": false,
      "stateMutability": "view",
      "type": "function"
    },
    {
      "constant": false,
      "inputs": [
        {
          "internalType": "address",
          "name": "_companyId",
          "type": "address"
        }
      ],
      "name": "acceptCompany",
      "outputs": [],
      "payable": false,
      "stateMutability": "nonpayable",
      "type": "function"
    },
    {
      "constant": false,
      "inputs": [
        {
          "internalType": "uint256",
          "name": "_month",
          "type": "uint256"
        },
        {
          "internalType": "address",
          "name": "_companyId",
          "type": "address"
        },
        {
          "internalType": "uint256",
          "name": "_amount",
          "type": "uint256"
        }
      ],
      "name": "addSalary",
      "outputs": [],
      "payable": false,
      "stateMutability": "nonpayable",
      "type": "function"
    },
    {
      "constant": true,
      "inputs": [
        {
          "internalType": "uint256",
          "name": "_month",
          "type": "uint256"
        }
      ],
      "name": "getCompanyIdsForMonth",
      "outputs": [
        {
          "internalType": "address[]",
          "name": "",
          "type": "address[]"
        }
      ],
      "payable": false,
      "stateMutability": "view",
      "type": "function"
    },
    {
      "constant": true,
      "inputs": [
        {
          "internalType": "uint256",
          "name": "_month",
          "type": "uint256"
        }
      ],
      "name": "getSalaryAmountsForMonth",
      "outputs": [
        {
          "internalType": "uint256[]",
          "name": "",
          "type": "uint256[]"
        }
      ],
      "payable": false,
      "stateMutability": "view",
      "type": "function"
    }
  ],
  "bytecode": "0x608060405234801561001057600080fd5b50336000806101000a81548173ffffffffffffffffffffffffffffffffffffffff021916908373ffffffffffffffffffffffffffffffffffffffff160217905550610825806100606000396000f3fe608060405234801561001057600080fd5b50600436106100575760003560e01c8063026281ce1461005c5780631c4fde34146100b4578063522577e91461013757806373c167fe146101555780637677da6b146101d8575b600080fd5b6100b26004803603606081101561007257600080fd5b8101908080359060200190929190803573ffffffffffffffffffffffffffffffffffffffff1690602001909291908035906020019092919050505061021c565b005b6100e0600480360360208110156100ca57600080fd5b810190808035906020019092919050505061035d565b6040518080602001828103825283818151815260200191508051906020019060200280838360005b83811015610123578082015181840152602081019050610108565b505050509050019250505060405180910390f35b61013f610487565b6040518082815260200191505060405180910390f35b6101816004803603602081101561016b57600080fd5b810190808035906020019092919050505061048d565b6040518080602001828103825283818151815260200191508051906020019060200280838360005b838110156101c45780820151818401526020810190506101a9565b505050509050019250505060405180910390f35b61021a600480360360208110156101ee57600080fd5b81019080803573ffffffffffffffffffffffffffffffffffffffff169060200190929190505050610581565b005b8160011515600260008373ffffffffffffffffffffffffffffffffffffffff1673ffffffffffffffffffffffffffffffffffffffff16815260200190815260200160002060009054906101000a900460ff161515146102c6576040517f08c379a00000000000000000000000000000000000000000000000000000000081526004018080602001828103825260218152602001806107d06021913960400191505060405180910390fd5b83600181101580156102d95750600c8111155b61034b576040517f08c379a000000000000000000000000000000000000000000000000000000000815260040180806020018281038252600d8152602001807f496e76616c6964206d6f6e74680000000000000000000000000000000000000081525060200191505060405180910390fd5b61035685858561069e565b5050505050565b606081600181101580156103725750600c8111155b6103e4576040517f08c379a000000000000000000000000000000000000000000000000000000000815260040180806020018281038252600d8152602001807f496e76616c6964206d6f6e74680000000000000000000000000000000000000081525060200191505060405180910390fd5b6003600084815260200190815260200160002060000180548060200260200160405190810160405280929190818152602001828054801561047a57602002820191906000526020600020905b8160009054906101000a900473ffffffffffffffffffffffffffffffffffffffff1673ffffffffffffffffffffffffffffffffffffffff1681526020019060010190808311610430575b5050505050915050919050565b60015481565b606081600181101580156104a25750600c8111155b610514576040517f08c379a000000000000000000000000000000000000000000000000000000000815260040180806020018281038252600d8152602001807f496e76616c6964206d6f6e74680000000000000000000000000000000000000081525060200191505060405180910390fd5b6003600084815260200190815260200160002060010180548060200260200160405190810160405280929190818152602001828054801561057457602002820191906000526020600020905b815481526020019060010190808311610560575b5050505050915050919050565b6000809054906101000a900473ffffffffffffffffffffffffffffffffffffffff1673ffffffffffffffffffffffffffffffffffffffff163373ffffffffffffffffffffffffffffffffffffffff1614610643576040517f08c379a00000000000000000000000000000000000000000000000000000000081526004018080602001828103825260168152602001807f4d73672053656e646572206973206e6f7420757365720000000000000000000081525060200191505060405180910390fd5b6001600260008373ffffffffffffffffffffffffffffffffffffffff1673ffffffffffffffffffffffffffffffffffffffff16815260200190815260200160002060006101000a81548160ff02191690831515021790555050565b80600154016001819055506000600360008581526020019081526020016000209050806000018390806001815401808255809150509060018203906000526020600020016000909192909190916101000a81548173ffffffffffffffffffffffffffffffffffffffff021916908373ffffffffffffffffffffffffffffffffffffffff16021790555050806001018290806001815401808255809150509060018203906000526020600020016000909192909190915055507fea56ffc0a7f69473b9dfdba693edb928c733bb5428c399453dd9a83176da24d2848484604051808481526020018373ffffffffffffffffffffffffffffffffffffffff1673ffffffffffffffffffffffffffffffffffffffff168152602001828152602001935050505060405180910390a15050505056fe5573657220686173206e6f742061636365707465642074686520636f6d70616e79a265627a7a723158203dc763b8e58d3476b685a39abc9cfc5e70f9a943e59a92e7e395df50f9ad2b3d64736f6c63430005100032",
  "source": "pragma solidity >=0.5.0 <0.6.0;\r\n\r\ncontract User {\r\n    address userId;\r\n    uint public totalIncome;\r\n    mapping(address=>bool) companyAdded;\r\n\r\n    struct MonthlySalary {\r\n        address[] companyId;\r\n        uint[] salaryAmount;\r\n    }\r\n\r\n    event SalaryAdded(uint _month, address _companyId, uint _amount);\r\n\r\n    mapping (uint=>MonthlySalary) monthlySalaries; //month -> MonthlySalary\r\n\r\n    constructor() public {\r\n        userId = msg.sender;\r\n    }\r\n\r\n    modifier companyAccepted(address _companyId) {\r\n        require(companyAdded[_companyId] == true, \"User has not accepted the company\");\r\n        _;\r\n    }\r\n    modifier validMonth(uint _month) {\r\n        require(_month >= 1 && _month <= 12, \"Invalid month\");\r\n        _;\r\n    }\r\n\r\n    function acceptCompany(address _companyId) public {\r\n        require(msg.sender == userId, \"Msg Sender is not user\");\r\n        companyAdded[_companyId] = true;\r\n    }\r\n\r\n    function _addSalaryToIncome(uint _month, address _companyId, uint _amount) private {\r\n        totalIncome = totalIncome + _amount;\r\n        MonthlySalary storage monthlySalary = monthlySalaries[_month];\r\n        monthlySalary.companyId.push(_companyId);\r\n        monthlySalary.salaryAmount.push(_amount);\r\n        emit SalaryAdded(_month, _companyId, _amount);\r\n    }\r\n\r\n    function addSalary(uint _month, address _companyId, uint _amount) public companyAccepted(_companyId) validMonth(_month) {\r\n        _addSalaryToIncome(_month, _companyId, _amount);\r\n    }\r\n\r\n    function getCompanyIdsForMonth(uint _month) public view validMonth(_month) returns (address[] memory) {\r\n        return monthlySalaries[_month].companyId;\r\n    }\r\n    \r\n    function getSalaryAmountsForMonth(uint _month) public view validMonth(_month) returns (uint[] memory){\r\n        return monthlySalaries[_month].salaryAmount;\r\n    }\r\n}",
  "sourcePath": "C:\\Users\\Joy\\Documents\\cs481\\taxchain\\Contracts\\contracts\\user.sol",
  "compiler": {
    "name": "solc",
    "version": "0.5.16+commit.9c3226ce.Emscripten.clang"
  },
  "schemaVersion": "3.0.23",
  "updatedAt": "2020-04-15T02:46:53.113Z",
  "devdoc": {
    "methods": {}
  },
  "userdoc": {
    "methods": {}
  }
}